S00C00006770696F2E7372656369
S11300000C9434000C943E000C943E000C943E007E
S11300100C943E000C943E000C943E000C943E0064
S11300200C943E000C943E000C943E000C943E0054
S11300300C943E000C943E000C943E000C943E0044
S11300400C943E000C943E000C943E000C943E0034
S11300500C943E000C943E000C943E000C943E0024
S11300600C943E000C943E0011241FBECFEFD8E048
S1130070DEBFCDBF0E9470000C94B6000C9400004B
S1130080FC01408121E030E002C0220F331F6A9559
S1130090E2F7242B20830895FC01408121E030E025
S11300A002C0220F331F6A95E2F7242B20830895A0
S11300B0FC01908121E030E002C0220F331F6A95D9
S11300C0E2F72095292320830895FC01208181E013
S11300D090E002C0880F991F6A95E2F78223089581
S11300E065E084E290E00E94400065E085E290E0F3
S11300F00E94580064E084E290E00E94400064E0C2
S113010085E290E00E94580063E08AE290E00E9459
S11301104C0063E08BE290E00E9465002FEF89E6DB
S113012098E1215080409040E1F700C0000016C0E3
S11301302FEF89E698E1215080409040E1F700C01C
S113014000002D9A2C9A2FEF89E698E121508040E7
S11301509040E1F700C000002D982C9889B163E02D
S113016090E00E946500882319F3D8CFF894FFCF5C
S9030000FC
