S00C0000756172742E737265635C
S11300000C9434000C9451000C9451000C94510045
S11300100C9451000C9451000C9451000C94510018
S11300200C9451000C9451000C9451000C94510008
S11300300C9451000C9447010C9451000C94510001
S11300400C9451000C9451000C9415020C9443022E
S11300500C9451000C945C010C9451000C945100CC
S11300600C9451000C94510011241FBECFEFD8E022
S1130070DEBFCDBF11E0A0E0B1E0EAE7F5E002C0E9
S113008005900D92A833B107D9F721E0A8E3B1E0B8
S113009001C01D92AD37B207E1F70E94F6000C943F
S11300A0BB020C940000299A85E08A95F1F70000C0
S11300B029980895CF93C82F662311F0289A01C078
S11300C02898549A559A569A579A5F985E985D98CC
S11300D05C98CC230CF45F9AC6FD5E9AC5FD5D9ACC
S11300E0C4FD5C9A0E9453005F985E985D985C988A
S11300F0C3FD5F9AC2FD5E9AC1FD5D9AC0FD5C9A24
S11301000E9453005C9A5D9A5E9A5F9A87EB9BE02B
S11301100197F1F700C00000CF91089560E00E94BC
S11301205A000895611104C080580E948E000895F9
S113013080540E948E00089581E00E948E000895EC
S113014061E00E945A000895CF93DF93EC01219659
S1130150FC018081882329F00E94A00089918111EB
S1130160FBCFDF91CF910895CF93C82F209A559A52
S1130170219A549A559A569A579A8FEF99EF019764
S1130180F1F700C000005D9A5C9A0E9453008FE171
S11301909EE40197F1F700C000000E9453008FEF26
S11301A090E00197F1F700C000000E9453008FEF28
S11301B090E00197F1F700C000005C980E945300A2
S11301C08FEF90E00197F1F700C0000088E20E94F1
S11301D08E0088E00E948E000E949C0086E00E94AF
S11301E08E008C2F0E948E00CF9108958CE00E9487
S11301F0B40060E081E00E94920080E091E00E94FF
S1130200A40061E083E00E94920087E091E00E94F4
S1130210A40060E088E00E9492008CE091E00E94DB
S1130220A40060E08DE00E9492008EE091E00E94C4
S1130230A40061E088E00E94920080E191E00E94C5
S1130240A400ECE7F0E080818064808380818E7F6D
S11302508083EAE7F0E08081806880838081886021
S11302608083808187608083EFE6F0E08081816015
S11302708083E1E8F0E080818B7F808380818360EC
S1130280808387E690E00E946D027894FFCF1F92EE
S11302900F920FB60F9211248F93EF93FF93EAE717
S11302A0F0E0808180648083FF91EF918F910F90C3
S11302B00FBE0F901F9018951F920F920FB60F92BA
S11302C01124EF92FF920F931F932F933F934F9319
S11302D05F936F937F938F939F93AF93BF93EF93AA
S11302E0FF93CF93DF9300D000D0CDB7DEB780E388
S11302F090E39A8389839C838B8308E710E0F80159
S1130300E080F1804AE0BE016F5F7F4FC7010E9429
S1130310860260E088E00E94920084E191E00E94FD
S1130320A40060E088E00E949200CE0101960E9441
S1130330A40040E1BE016F5F7F4FC7010E948602A7
S113034060E08DE00E94920085E191E00E94A400AB
S113035060E08DE00E949200CE0101960E94A4000C
S113036061E088E00E94920082E191E00E94A40092
S113037061E088E00E949200F80180819181892BDC
S113038029F489E191E00E94A40034C080917800AE
S1130390909179008336910529F48FE191E00E94D0
S11303A0A40028C080917800909179008130914018
S11303B029F482E291E00E94A4001CC0809178009C
S11303C0909179008939914029F487E291E00E9463
S11303D0A40010C0809178009091790080389240F8
S11303E029F48CE291E00E94A40004C083E391E02C
S11303F00E94A4000F900F900F900F90DF91CF9167
S1130400FF91EF91BF91AF919F918F917F916F91E8
S11304105F914F913F912F911F910F91FF90EF901A
S11304200F900FBE0F901F9018951F920F920FB64A
S11304300F9211242F938F939F93EF93FF938091A7
S1130440C0002091C6008C71E0913A01EF5FEF711A
S113045090913901E91739F0E0933A01F0E0E35C57
S1130460FE4F208301C082E090913801892B809354
S11304703801FF91EF919F918F912F910F900FBEB3
S11304800F901F9018951F920F920FB60F92112480
S11304908F939F93EF93FF9390913C0180913B0145
S11304A0981769F0E0913B01EF5FEF71E0933B0136
S11304B0F0E0E35AFE4F80818093C60005C0E1EC72
S11304C0F0E080818F7D8083FF91EF919F918F91E8
S11304D00F900FBE0F901F90189510923C01109230
S11304E03B0110923A011092390199231CF422E045
S11304F02093C00090789093C5008093C40088E94D
S11305008093C10086E08093C2000895BB274A30DF
S113051031F4992322F4BDE2909581959F4F0C9478
S11305209202BB27FB015527AA27880F991FAA1FF0
S1130530A41710F0A41B83955051B9F7A05DAA33FA
S113054008F0A95DA193009779F7B111B1931192C5
S1130550CB010C94AB02DC01FC01672F7191772372
S1130560E1F7329704C07C916D9370836291AE176A
S10D0570BF07C8F30895F894FFCF05
S113057A76616C75653A006B65793A0061006200D0
S113058A63002020202020200052696768740055E7
S113059A7000446F776E004C6566740053656C6531
S10B05AA6374004E6F6E000043
S9030000FC
