S00B00006932632E737265631B
S11300000C9434000C9451000C9451000C94510045
S11300100C9451000C9451000C9451000C94510018
S11300200C9451000C9451000C9451000C94510008
S11300300C9451000C946C000C9451000C945100DD
S11300400C9451000C9451000C9415010C94430130
S11300500C9451000C9451000C9451000C945100D8
S11300600C9451000C94510011241FBECFEFD8E022
S1130070DEBFCDBF11E0A0E0B1E0E2ECF3E002C0EE
S113008005900D92A832B107D9F721E0A8E2B1E0BA
S113009001C01D92AD3AB207E1F70E9453000C94DF
S11300A0DF010C9400000E94E40087E690E00E94C7
S11300B06D01E1E8F0E080818A7F80838081826045
S11300C08083EFE6F0E0808181608083789482E031
S11300D091E00E949B01FFCF1F920F920FB60F92E7
S11300E011241F932F933F934F935F936F937F93A9
S11300F08F939F93AF93BF93EF93FF93CF93DF932C
S113010000D0CDB7DEB780E390E39A8389838091F2
S113011001018230A9F0833029F18130E1F5809129
S1130120000191E0980F909300018750803720F4EC
S113013082E08093010132C087E0809300012EC0E9
S113014080910001880F0E94F300182F0E94110172
S1130150111104C083E08093010120C081E08093E9
S113016001011CC080E291E00E949B01809100018A
S113017040E1BE016F5F7F4F90E00E94AA01CE0173
S113018001960E949B018DE191E00E949B0181E018
S11301908093010103C081E0809301010F900F90CF
S11301A0DF91CF91FF91EF91BF91AF919F918F918B
S11301B07F916F915F914F913F912F911F910F907C
S11301C00FBE0F901F90189587B18F7C87B988B1A7
S11301D0806388B9E9EBF0E080818C7F808388E9D3
S11301E08093B800089594EA9093BC00ECEBF0E09F
S11301F090819923ECF78093BB0084E88093BC0042
S1130200ECEBF0E080818823ECF79091B900987FC3
S1130210983129F081E0903419F480E0089580E069
S1130220089584E98093BC0008951F920F920FB63D
S11302300F9211242F938F939F93EF93FF938091A9
S1130240C0002091C6008C71E0912A01EF5FEF732A
S113025090912901E91739F0E0932A01F0E0E35D78
S1130260FE4F208301C082E090912801892B809366
S11302702801FF91EF919F918F912F910F900FBEC5
S11302800F901F9018951F920F920FB60F92112482
S11302908F939F93EF93FF9390912C0180912B0167
S11302A0981769F0E0912B01EF5FEF73E0932B0156
S11302B0F0E0E359FE4F80818093C60005C0E1EC75
S11302C0F0E080818F7D8083FF91EF919F918F91EA
S11302D00F900FBE0F901F90189510922C01109242
S11302E02B0110922A011092290199231CF422E077
S11302F02093C00090789093C5008093C40088E94F
S11303008093C10086E08093C200089520912C015F
S11303102F5F2F7390912B012917E1F3E22FF0E067
S1130320E359FE4F808320932C01E1ECF0E08081BF
S1130330806280830895CF93DF93EC0188818823C2
S113034031F021960E94860189918111FBCFDF91C2
S1130350CF910895BB274A3031F4992322F4BDE2AA
S1130360909581959F4F0C94B601BB27FB015527AF
S1130370AA27880F991FAA1FA41710F0A41B8395FE
S11303805051B9F7A05DAA3308F0A95DA193009775
S113039079F7B111B1931192CB010C94CF01DC0127
S11303A0FC01672F71917723E1F7329704C07C91A8
S11303B06D9370836291AE17BF07C8F30895F894E4
S10503C0FFCF69
S11303C207010D0A5363616E204932432D6275732E
S11303D220666F7220646576696365733A0D0A005C
S10B03E2416464723A2000003A
S9030000FC
