S00B00006C63642E73726563E6
S11300000C9434000C9451000C9451000C94510045
S11300100C9451000C9451000C9451000C94510018
S11300200C9451000C944C010C9451000C9451000C
S11300300C9451000C9451000C9451000C945100F8
S11300400C9451000C9451000C9451000C945100E8
S11300500C9451000C9451000C9451000C945100D8
S11300600C9451000C94510011241FBECFEFD8E022
S1130070DEBFCDBF11E0A0E0B1E0E2E8F4E002C0F1
S113008005900D92AC33B107D9F721E0ACE3B1E0B0
S113009001C01D92AF33B207E1F70E94FA000C943D
S11300A03F020C940000299A85E08A95F1F700003C
S11300B029980895CF93C82F662311F0289A01C078
S11300C02898549A559A569A579A5F985E985D98CC
S11300D05C98CC230CF45F9AC6FD5E9AC5FD5D9ACC
S11300E0C4FD5C9A0E9453005F985E985D985C988A
S11300F0C3FD5F9AC2FD5E9AC1FD5D9AC0FD5C9A24
S11301000E9453005C9A5D9A5E9A5F9A87EB9BE02B
S11301100197F1F700C00000CF91089560E00E94BC
S11301205A00089561E00E945A000895611104C0C4
S113013080580E948E00089580540E948E00089575
S113014081E00E948E00089561E00E945A000895A3
S1130150CF93DF93EC012196FC018081882329F061
S11301600E94A40089918111FBCFDF91CF91089562
S1130170CF93C82F209A559A219A549A559A569AF1
S1130180579A8FEF99EF0197F1F700C000005D9A3D
S11301905C9A0E9453008FE19EE40197F1F700C03E
S11301A000000E9453008FEF90E00197F1F700C028
S11301B000000E9453008FEF90E00197F1F700C018
S11301C000005C980E9453008FEF90E00197F1F7D4
S11301D000C0000088E20E948E0088E00E948E0029
S11301E00E94A00086E00E948E008C2F0E948E0048
S11301F0CF9108958CE00E94B80060E081E00E94F5
S1130200960080E391E00E94A80060E08BE00E94E9
S1130210960081E60E94A40061E081E00E949600BD
S113022082E60E94A40061E08BE00E94960083E6CF
S11302300E94A40061E08CE00E94960080E40E9489
S11302408E00C0E0D1E000E111E089910E949200AB
S1130250C017D107D1F780E80E948E0061E08CE0DE
S11302600E94960080E00E94A400E0E7F0E0808114
S113027081608083E1EBF0E080818760808385B5D5
S11302808C7F85BD85B5846085BDEFE6F0E0808117
S1130290816080837894FFCF1F920F920FB60F92E4
S11302A01124EF92FF920F931F932F933F934F9339
S11302B05F936F937F938F939F93AF93BF93EF93CA
S11302C0FF93CF93DF9300D000D0CDB7DEB780E2A9
S11302D090E29A8389839C838B8380913E018F5F14
S11302E0863018F480933E0156C010923E018091EE
S11302F03D018F5F8A3018F480933D0127C010922E
S11303003D0180913C018F5F8A3018F480933C0159
S11303100AC010923C0160E08BE00E94960088E3E2
S113032091E00E94A80080913C014AE0BE016D5F0B
S11303307F4F889FC00111240E940A0260E08BE075
S11303400E949600CE0103960E94A80060E087E018
S11303500E94960080913D01805D0E94A4008091DE
S11303603C014AE0BE016F5F7F4F90E00E940A02A9
S113037060E084E00E94960080913C018A3018F489
S113038080E30E94A400CE0101960E94A80061E0CF
S11303908CE00E94960061E081E00E94960080E07B
S11303A00E94A40080E40E948E0000E011E00F2E61
S11303B0F0E1EF2EF1E0FF2EF02DF80181918F0195
S11303C00E9492000E151F05C1F780E80E948E005E
S11303D061E08CE00E94960080E00E94A4000F90EF
S11303E00F900F900F90DF91CF91FF91EF91BF91FC
S11303F0AF919F918F917F916F915F914F913F91B9
S11304002F911F910F91FF90EF900F900FBE0F90BF
S11304101F901895BB274A3031F4992322F4BDE28A
S1130420909581959F4F0C941602BB27FB0155278D
S1130430AA27880F991FAA1FA41710F0A41B83953D
S11304405051B9F7A05DAA3308F0A95DA1930097B4
S113045079F7B111B1931192CB010C942F02DC0105
S1130460FC01672F71917723E1F7329704C07C91E7
S11304706D9370836291AE17BF07C8F30895F89423
S1050480FFCFA8
S113048200000000000000001010101010101010E6
S113049218181818181818181C1C1C1C1C1C1C1CB6
S11304A21E1E1E1E1E1E1E1E1F1F1F1F1F1F1F1F5E
S10F04B230303A30302E300020200000A2
S9030000FC
